:100000000C94AB000C94DC000C94DC000C94DC0031
:100010000C94DC000C94DC000C94DC000C94DC00F0
:100020000C94DC000C94DC000C94DC000C94DC00E0
:100030000C94DC000C94DC000C94DC000C94DC00D0
:100040000C94DC000C94DC000C94DC000C94DC00C0
:100050000C94DC000C94DC000C94DC000C94DC00B0
:100060000C94DC000C94EB000C94DC000C94DC0091
:100070000C94DC000C94DC000C94DC000C94DC0090
:100080000C94DC000C94DC000C94DC000C94DC0080
:100090000C94DC000C94DC000C94DC000C94DC0070
:1000A0000C94DC000C94DC000C94DC000C94DC0060
:1000B0000C94DC000C94DC000C94DC000C94DC0050
:1000C0000C94DC000C94DC000C94DC000C94DC0040
:1000D0000C94DC000C94DC000C94DC000C94DC0030
:1000E0000C94DC000C94F0110C9428100C947D11ED
:1000F0000C94CB120C94BB080C948B110C949B08A1
:100100000C94ED080C948F070C9436120C949012FA
:100110000C9441100C9421090C94A5070C948207AF
:100120000C940F190C945C090C9453090C947B04E7
:100130000C94C3080C949A110C94A2070C94B30865
:100140000C94E40B0C9456040C94920704100111C7
:10015000000000000F1911241FBECFEFD1E2DEBF57
:10016000CDBF00E00CBF14E0A0E0B2E0E4E0F3E3B8
:1001700000E00BBF02C007900D92AC33B107D9F776
:1001800024E0ACE3B4E001C01D92A53AB207E1F768
:1001900010E0CBEAD0E000E006C021970109802FF3
:1001A000FE010E941419CA3AD10780E00807A9F796
:1001B0000E94A9180C9480190C9400001092C5009C
:1001C00087E68093C40088E98093C10086E080932D
:1001D000C200789408951F920F920FB60F921124C7
:1001E0000BB60F922F938F939F93EF93FF93809172
:1001F000A404811116C08091C60090E090933E0443
:1002000080933D0481E08093A404FF91EF919F913E
:100210008F912F910F900BBE0F900FBE0F901F90DC
:100220001895E0913F048091C600F0E0E35CFB4F3D
:10023000838380913F048F5F80933F0420913F042C
:1002400080913D0490913E0428171906F1F681E053
:1002500080933C0410923F041092A404D6CF4F9296
:100260005F926F927F928F929F92AF92BF92CF9246
:10027000DF92EF92FF920F931F93CF93DF9300D003
:1002800000D0CDB7DEB7DC014D915C9111975E8354
:100290004D8314962D913C911597FA018085918597
:1002A0002817390708F075C12081318116968D9184
:1002B0009C911797880F991F880F991FF901E80FD4
:1002C000F91FC590D590E590F49077276F2D5E2D9E
:1002D0004D2D49835A836B837C8352964C9352975E
:1002E000B701A601437055276627772726013701F6
:1002F000F2E07694679457944794FA95D1F7413099
:1003000051056105710509F45FC008F440C0FC01A6
:1003100034968C01085F1F4F42305105610571050D
:1003200009F4CDC0E20FF31F459155916591749189
:10033000F901E00FF11F85909590A590B490FC0114
:100340003C96E20FF31FC590D590E590F490FC0128
:100350007096E20FF31F05911591259134915196F6
:100360001C930E935097F201EF73FF27052F162F62
:10037000272F3327C80156E0880F991F5A95E1F7B8
:100380008E2B9F2B1D969C938E931C9718C081E0FB
:1003900090E051969C938E9350975FE345225524AD
:1003A0001D965C924E921C974F2D4F708E2C912C67
:1003B0006CE1F694E794D794C7946A95D1F71F96A9
:1003C000DC92CE921E9738C0FC013496E20FF31FE8
:1003D0000591159125913491C7019F7051969C9379
:1003E0008E9350976FE346225524480159018CE1C2
:1003F000B694A794979487948A95D1F7C40146E060
:10040000880F991F4A95E1F7842995291D969C9399
:100410008E931C975CE1F694E794D794C7945A9511
:10042000D1F74C2D48015901AA24BB24C9019F7062
:100430001F969C938E931E9712968D919C91139765
:10044000009709F06DC054961C921E9253975896CF
:100450001C921E92579752968C9152978F7088508B
:10046000990B029708F090C01A968D919C911B975A
:10047000880F991FED81FE8122813381F901E80FF8
:10048000F91F808191815A969C938E93599781E0B0
:1004900026960FB6F894DEBF0FBECDBFDF91CF9189
:1004A0001F910F91FF90EF90DF90CF90BF90AF9092
:1004B0009F908F907F906F905F904F900895E20F84
:1004C000F31F4591559165917491F901E00FF11F6A
:1004D00085909590A590B490FC013C96E20FF31F97
:1004E00005911591259134915196FC92EE92509779
:1004F0008FE348225524C52ED62EE72EFF24C601B1
:10050000F6E0880F991FFA95E1F7842995291D9641
:100510009C938E931C971F961C930E931E978CCFC3
:10052000880E991E54969C928E9253974423C1F044
:10053000C401841B910947FD939558969C938E9313
:1005400057978981807C8038D1F481149104B9F067
:10055000F4018081918156969C938E9355977BCF21
:1005600089818073803231F4998196FD03C0CD0179
:100570004096E3CF58961C921E925797E2CF56961C
:100580009C928E92559767CF5A961C921E925997BD
:100590007ECF80E07DCFCF92DF92EF92FF92CF931C
:1005A000DF93DC0114968D919C9115970196159619
:1005B0009C938E931497CD91DC9111972885398562
:1005C00082179307B8F015961C921E9214971796EF
:1005D0001C921E9216971B961C921E921A971996A1
:1005E0001C921E921897DF91CF91FF90EF90DF90B1
:1005F000CF90089516962D913C911797C901880FB9
:10060000991F880F991FE881F981E80FF91FC5909C
:10061000D590E590F49077276F2D5E2D4D2D83E0DA
:10062000C822DD2481E090E002C0880F991FCA949F
:10063000E2F7820F931F17969C938E931697842F41
:10064000807321E030E011F030E020E018968D91C9
:100650009C911997820F931F19969C938E931897CC
:100660004F704850550B21E030E04230510510F0FA
:1006700030E020E01A968D919C911B97820F931F7A
:100680001B969C938E931A97AECFFC01349627E16C
:10069000DF011D922A95E9F7FC0171836083538382
:1006A00042830C942F010F931F93CF93DF938C0100
:1006B000EB01E881F98164817581DB01ED91FC91A9
:1006C00085919591A591B491892F9A2FAB2FBB2736
:1006D000807C9927AA27BB27AE014E5F5F4F8038E9
:1006E0009105A105B10511F04A815B81C8010E9405
:1006F00045032696F801D08FC78BDF91CF911F91CC
:100700000F910895CF93DF93EC010E94CB02CE01AD
:100710000E942F0181E02C813D81232B09F480E090
:10072000DF91CF9108958F929F92AF92BF92CF9217
:10073000DF92EF92FF920F931F93CF93DF93EC0121
:100740008C849D84B12CA12C84169506A606B70630
:1007500071F481E0DF91CF911F910F91FF90EF90A5
:10076000DF90CF90BF90AF909F908F900895E881D9
:10077000F98184859585B0E0A0E084179507A607E8
:10078000B70708F43BC06A017B010C811D81C814C6
:10079000D904EA04FB0420F4808591859D838C8331
:1007A000CE010E94CB02A881B9818E819F81880FE2
:1007B000991F880F991FED91FC91E80FF91F859102
:1007C0009591A591B49132E0B695A79597958795A7
:1007D0003A95D1F78C259D25AE25BF258F73992796
:1007E000AA27BB27892B8A2B8B2B51F08C819D81CB
:1007F00080179107A9F6CE010E942F0180E0AACFB1
:10080000CE010E942F018C859D85B0E0A0E08C1563
:100810009D05AE05BF0551F78A898F708A3031F387
:1008200098CF0F931F93CF93DF93EC019A899F701A
:100830009A30B1F10C811D81CE010E94CB02A881BA
:10084000B9818E819F81880F991F880F991FED9123
:10085000FC91E80FF91F85919591A591B491892F8D
:100860009A2FAB2FBB278F709927AA27BB270A97F0
:10087000A105B10539F4CE01DF91CF911F910F9100
:100880000C942F018C819D8180179107A9F6CE01D0
:100890000E942F0180E0DF91CF911F910F91089569
:1008A00081E0F9CF0C9445030C9453039B01BA01EA
:1008B000FA01468557854430510571F4A589B689FA
:1008C000109751F0009751F0ED91FC911197AD0107
:1008D0004E5F5F4F309771F481E008952115310527
:1008E000D9F3ED91FC9111973097B1F3AD014E5FC3
:1008F0005F4FC9011994FC01828193819C01240FEF
:10090000351F338322830E94671981E00895CF93B6
:10091000DF93CDB7DEB76B970FB6F894DEBF0FBE8F
:10092000CDBFFC018289982F907C09F06AC0982F76
:100930009073A9F1903239F40788F08DE02D81E0B1
:100940002081318141C09033B9F3903189F4A78976
:10095000B08D109769F081E09C91911120C06B9649
:100960000FB6F894DEBF0FBECDBFDF91CF910895D3
:10097000A081B18114962D913C91232B81F48F702D
:10098000863078F4A589B689868597858A0F9B1F5E
:10099000A817B90709F44CC02D912223C9F380E0B0
:1009A000DECF863021F40588F689E02DC8CF873068
:1009B00031F40588F689E02D81E09081CECF8B302F
:1009C00031F481E026853785232B49F7C8CF88503D
:1009D000990B029720F745895689618D728DCE015A
:1009E00001960E944503882319F1CE0101960E94C9
:1009F0008704882309F4B3CFCE0101960E948203B5
:100A0000F2CF903821F481E025893689DDCF90340A
:100A100031F68F708A3039F2A081B18116962D910E
:100A20003C9184E02635380709F4BDCF81E0CCCF76
:100A300081E095CFFC018BE794E091838083738301
:100A40006283558344831782168211861086CF01F4
:100A500008950F931F93CF93DF93EC018A01411503
:100A6000510569F1E881F981309749F12E813F8183
:100A7000CA01820F931F8217930728F02C813D81B2
:100A80002817390770F488859985009711F480E15B
:100A900092E09987888780E0DF91CF911F910F9135
:100AA0000895CE01199581110AC02885398521152F
:100AB000310511F42CE132E039872887EDCF8E81A2
:100AC0009F81080F191F1F830E8381E0E5CF2F92AE
:100AD0003F924F925F926F927F928F929F92AF92CE
:100AE000BF92CF92DF92EF92FF920F931F93CF931B
:100AF000DF9300D000D000D01F92CDB7DEB73C010D
:100B0000480159016A017B019801A501B601C7019D
:100B1000AFE7FE0131961F010E945B1909F000F555
:100B2000098341E050E0B101C3010E9429052A96E2
:100B30000FB6F894DEBF0FBECDBFDF91CF911F91EE
:100B40000F91FF90EF90DF90CF90BF90AF909F906C
:100B50008F907F906F905F904F903F902F9008956F
:100B600000E20E943719522E052D132F9A01482CAE
:100B7000E89447F8D501C401F7E0B695A795979595
:100B80008795FA95D1F7B10150E040E00097A105B3
:100B9000B10529F40115110521053105E1F14F5F7A
:100BA0005F4F689447F8FB014192BF01482EE894DB
:100BB00047F8E7E0B695A79597958795EA95D1F719
:100BC0004430510519F7011511052105310519F1B9
:100BD000852D82958077482A93E03695279517953D
:100BE00007959A95D1F7DE011596AD014219530983
:100BF000011511052105310571F0842D80688D9353
:100C0000402EE89447F887E0369527951795079585
:100C10008A95D1F7EACFD101A40FB51F4C924F5F4F
:100C20005F4F81CF6F927F928F929F92AF92BF92D0
:100C3000CF92DF92EF92FF920F931F93CF93DF93A8
:100C40006C01380149015A01E62EA72F9801A40131
:100C5000B5018E2D9A2F01E00E941C198901F42EF6
:100C6000D52FC62FB72FF82FE92F9301A401B50177
:100C70008E2D9A2FA0E00E945B1944F400951095E8
:100C8000F094D095C095B095F095E0952F2D3D2F1F
:100C90004C2F5B2F6F2F7E2FC6010E946705DF91BF
:100CA000CF911F910F91FF90EF90DF90CF90BF9069
:100CB000AF909F908F907F906F9008958F929F92AA
:100CC000AF92BF92CF92DF92EF92FF920F931F935A
:100CD000CF93FB01C289CF7026853785C230C1F51D
:100CE0002130310589F40588F689E02D8080912C2A
:100CF000B12CA12CC12CD12C760184019501A60127
:100D0000B7010E9467057DC02230310531F40588A6
:100D1000F689E02D80809180EBCF2430310541F4BD
:100D20000588F689E02D80809180A280B380E2CF93
:100D30002830310509F059C00588F689E02D8080FA
:100D40009180A280B380C480D580E680F780D5CF23
:100D500021303105A9F40588F689E02D0081102F96
:100D6000110F110B212F312FF12EB12FA12F712F28
:100D70004F2D5B2F6A2FC33021F60E94120641C00F
:100D80002230310571F40588F689E02D118100814A
:100D9000212F220F220B322FF22EB22FA22F722FD1
:100DA000E7CF2430310591F40588F689E02D4081A4
:100DB0005181628173818A019B01770F440B542F0B
:100DC000BA01F42EB42FA42F742FD2CF28303105BE
:100DD00061F40588F689E02D00811181228133813B
:100DE000F480B581A6817781C3CFFC012085318550
:100DF0002115310511F425E232E0FC01318720870D
:100E000080E0CF911F910F91FF90EF90DF90CF90F6
:100E1000BF90AF909F908F90089544E050E00C9465
:100E2000290548E050E00C942905FB01268537850B
:100E30002430310521F4658976890C940D0728301A
:100E4000310521F4658976890C941107FC01208510
:100E500031852115310511F425E232E0FC0131879D
:100E6000208780E008958F929F92AF92BF92CF9299
:100E7000DF92EF92FF920F931F93DC01E62F172F63
:100E800060E070E080E090E003E00E941C190E2F0B
:100E9000E12FEE0FEE0B022B132B242F2E2B352FD1
:100EA0003E2B462F4E2B572F5E2B682F6E2B792F04
:100EB0007E2BCD010E9467051F910F91FF90EF904F
:100EC000DF90CF90BF90AF909F908F900895CF9379
:100ED000DF93DC01EB01EA89EF70EC3018F5F0E00C
:100EE0008827EA58F84F8F4F0C941419A207A207CD
:100EF000A207A2078207A5078F078F078F078F0713
:100F000092078F0785E090E0FB012485358550E04E
:100F100040E0BC01CD01DF91CF910C94330782E01A
:100F200090E0F2CF18968D919C911997009711F44B
:100F300087E392E019969C938E93189780E0DF9157
:100F4000CF91089590E080E0DFCF81E090E0DCCFAA
:100F5000CF92DF92EF92FF920F931F93CF93DF9385
:100F6000EC016B017A018A0120E030E040E050E0C2
:100F700060E070E00E946705882369F0A701B60170
:100F8000CE01DF91CF911F910F91FF90EF90DF90F5
:100F9000CF900C94290580E0DF91CF911F910F91A4
:100FA000FF90EF90DF90CF9008958F929F92AF9235
:100FB000BF92CF92DF92EF92FF920F931F93CF9346
:100FC000DF9300D000D000D01F92CDB7DEB77C01F8
:100FD0005B014A01CE0101966C018AE0F601119293
:100FE0008A95E9F7C6010E94630B29853A85F701C6
:100FF000882309F466C02F813885890120E030E01C
:1010000040E050E060E070E0C7010E94670588237F
:1010100071F0F701208131810F811885211531058B
:10102000C9F4A80170E060E0C7010E9429052A9672
:101030000FB6F894DEBF0FBECDBFDF91CF911F91E9
:101040000F91FF90EF90DF90CF90BF90AF909F9067
:101050008F90089586819781800F911F44815581DB
:101060004817590758F480859185009711F480E15D
:1010700092E0F7019187808780E0D9CF3A83298376
:10108000828193819C838B831E830D8318861F82AC
:101090001A861986A401B501C6010E94630B4F810F
:1010A0005885F70126813781240F351F3783268322
:1010B0002B813C813383228329853A854017510750
:1010C00019F431872087B3CF2115310511F42AE4B3
:1010D00032E0F70131872087CFCF0F931F93CF9353
:1010E000DF93DB0155962D913C91232B09F4ECC045
:1010F0008B01EC010E946707811102C080E02EC0C5
:10110000F8019289292F2F702C3008F0D5C0E22FDA
:10111000F0E08827E157F74F8F4F0C9414199B0884
:10112000B308B308B308BB08BB08C308ED0821091E
:1011300021095C095309D8015596ED91FC9101E014
:101140008081811101C000E010E020E030E040E04B
:1011500050E060E070E0CE010E946705DF91CF9122
:101160001F910F910895B801CE01DF91CF911F918A
:101170000F910C945E06B801CE01DF91CF911F91C3
:101180000F910C941507D8015596ED91FC91569747
:10119000309759F450E040E070E060E0CE01DF911C
:1011A000CF911F910F910C94A80740815181907CA1
:1011B00081F41E968D919C9102978417950748F4AF
:1011C00088859985009711F48EE592E09987888744
:1011D00095CFBF016E5F7F4FE1CF907C903809F1D2
:1011E000F80186859785009739F488859985009759
:1011F00069F782E792E0EACF0197D80155966D91A1
:101200007C9161157105D1F0FB0150E040E0219126
:101210004817590749F0222309F4C0CF4F5F5F4FA9
:10122000F6CF8FEF9FEFE9CF222309F4B7CF888560
:101230009985009759F685E892E0C8CF50E040E0E4
:10124000ADCFF801818D928D892B41F488859985E8
:10125000009709F0BBCF89E992E0B8CF293079F047
:10126000D80155964D915C91569759966D917C9108
:10127000CE01DF91CF911F910F910C94D507478933
:10128000508D4115510561F3FA0134970190F081B9
:10129000E02D309729F342505109B801CE0119953C
:1012A0008111DECF2BCFD8011E964D915C911F97F7
:1012B00055966D917C9172CF88859985009709F03C
:1012C00085CF87E392E082CF81E048CF6F927F9213
:1012D0008F929F92AF92BF92CF92DF92EF92FF9246
:1012E0000F931F93CF93DF9300D000D000D01F92B5
:1012F000CDB7DEB76C017B01DB0152968C91529722
:10130000982F9073903311F55796ED91FC91589763
:10131000208131811C968D919C912817390701F508
:10132000F701828925893689232BC1F58073C1F4A1
:10133000F60180859185009711F482EB92E0D60149
:1013400019969C938E93189780E00BC0903141F7CB
:101350005796ED91FC913097C9F080818111E0CFD3
:1013600081E02A960FB6F894DEBF0FBECDBFDF91A5
:10137000CF911F910F91FF90EF90DF90CF90BF9092
:10138000AF909F908F907F906F900895807C41F6F2
:10139000CB010E948704882319F2E2CF982F907C1A
:1013A0009034E9F40190F081E02D0680F781E02D82
:1013B0003097B1F2A701B60190E080E01995811154
:1013C000CFCFF601208531852115310511F429ECA7
:1013D00032E0D60119963C932E931897C2CF282F4E
:1013E0002073203209F018C1D7010788F08DE02D55
:1013F000A080B180A114B10409F4B2CF903879F083
:1014000050962D913C912A153B0548F4F6018085B4
:101410009185009709F093CF88ED92E090CF8F707F
:10142000912C812C863008F0C3C0F70124853585C6
:1014300050E040E062E070E0C6010E94330788237C
:1014400009F482CFD70152968C918F70843009F5C0
:101450004501880C991C880C991C840120E030E01F
:1014600040E050E060E070E0C6010E94670588231C
:1014700009F46ACFF6018081918110E000E0892BA8
:1014800009F05FC0A40170E060E0C6010E94290578
:1014900068CF853039F4450183E0880C991C8A9522
:1014A000E1F7DBCFFE0131964F018AE0DF011D92AB
:1014B0008A95E9F7F7016588768810E000E0B701C2
:1014C000C4010E945E06811112C0D60118962D91AA
:1014D0003C912115310539F429853A8521153105CD
:1014E00011F420EF32E0F601318720873ACFD7019F
:1014F00055968D919C9156971E962D913C911F97D4
:10150000820F931F56969C938E9355970F5F1F4F94
:10151000A016B106A1F656967C926E9255978F80D2
:1015200098849BCFF7018589968926853785820F18
:10153000931F968B858B0F5F1F4FA016B10609F482
:101540000FCFD70152968C918F708450990BB701B1
:10155000029730F4C6010E9415078111E3CFF4CE43
:10156000C6010E945E06F9CF198241E050E0BE013B
:101570006F5F7F4FC6010E9429058823C9F1F701DB
:10158000168B058BD70155968D919C9156971E967B
:101590002D913C911F97820F931F56969C938E938B
:1015A0005597BFEF8B1A9B0AA814B90409F4D8CE3B
:1015B000D70152968C915297982F907C903839F59C
:1015C0008F708650990B029710F555960D911C91CE
:1015D0005697F8018081918156969C938E935597EA
:1015E000B701892B59F4C6010E9467078111BCCF4E
:1015F000D70156961C930E935597B3CEC6010E9401
:101600006D08F701168B058B8111BCCF9DCEB701FC
:10161000C6010E946D08F8CFB701C6010E946D088F
:10162000A0CEEF92FF920F931F93CF93DF93CDB78E
:10163000DEB76B970FB6F894DEBF0FBECDBF7C014F
:10164000DB015596ED91FC91008111810115110589
:10165000C1F1D801ED91FC910280F381E02DB80138
:10166000309741F0C70119958823B9F0F80104813A
:101670001581ECCFCE0101960E94540481111AC04D
:10168000F701208531852115310511F427EF32E06E
:10169000D70119963C932E9318976B960FB6F89432
:1016A000DEBF0FBECDBFDF91CF911F910F91FF9095
:1016B000EF900895BE016F5F7F4FC7010E946609DA
:1016C000D3CF81E0EACF0F931F93CF93DF93CDB7B2
:1016D000DEB76B970FB6F894DEBF0FBECDBF8C019F
:1016E000CE0101960E945204882309F18B898F70E4
:1016F000BE016F5F7F4F8A30B1F4C8010E94110BA9
:10170000882329F0CE0101960E948203EDCF80E06C
:101710006B960FB6F894DEBF0FBECDBFDF91CF91B1
:101720001F910F910895C8010E946609E9CF81E0D9
:10173000EFCF0F931F93CF93DF9300D000D000D053
:101740001F92CDB7DEB78C01CE0101962AE0FC01D5
:1017500011922A95E9F70E94630B882329F02F81C3
:101760003885F801318320832A960FB6F894DEBFBE
:101770000FBECDBFDF91CF911F910F9108950F93B1
:101780001F93CF93DF931F92CDB7DEB78C0121FF5C
:1017900008C00E94D5070F90DF91CF911F910F9144
:1017A000089522FF0EC019820E94630B882399F3CB
:1017B00041E050E0BE016F5F7F4FC8010E942905E4
:1017C000EACF0E94630BE7CFDC0112962D913C918A
:1017D0001397F901E40FF51F1396FC93EE931297FC
:1017E0006115710521F0CB01B9010E94671981E0F3
:1017F0000895CF93DF93EC018C819D81892B61F457
:101800008E819F81009711F489E093E09F838E83FE
:1018100080E0DF91CF910895E881F98141E050E0C7
:10182000CE01199581110AC02E813F812115310504
:1018300011F42CE132E03F832E83EBCF2C813D81EC
:10184000215031093D832C83E4CFEF92FF920F9317
:101850001F93CF93DF93CDB7DEB760970FB6F894A1
:10186000DEBF0FBECDBF8C017A0181E0452B11F1A7
:101870006115710561F5D8018D919C91845E9B4045
:1018800031F1E1E1EE16F10470F040E150E0BE010B
:101890006F5F7F4FC8010E94250C882359F0F0E14B
:1018A000EF1AF108EECFA701BE016F5F7F4FC801AD
:1018B0000E94250C60960FB6F894DEBF0FBECDBF18
:1018C000DF91CF911F910F91FF90EF900895D80174
:1018D00014968D919C9115978E159F0560F4169620
:1018E0008D919C91009711F489E093E0F801978322
:1018F000868380E0DFCFED91FC91A701C8011995A7
:10190000F80181110DC0268137812115310511F4AF
:101910002CE132E0D80117963C932E931697CACF4C
:10192000248135812E153F0518F415821482C2CF0B
:101930002E193F0935832483BDCFCF93DF9300D089
:1019400000D01F921F92CDB7DEB724EE3BE03A8362
:10195000298318861F823A81AC0180E098852896F9
:101960000FB6F894DEBF0FBECDBFDF91CF910895C3
:101970008F929F92AF92BF92CF92DF92EF92FF929F
:101980000F931F93CF93DF931F92CDB7DEB75C0108
:101990004B01BE016F5F7F4F0E94F90B082F811131
:1019A00010C000E0802F0F90DF91CF911F910F9119
:1019B000FF90EF90DF90CF90BF90AF909F908F906F
:1019C0000895898187FD0AC0C82ED12CF12CE12C05
:1019D000F401C082D182E282F382E4CF8F77C82EF5
:1019E000D12CF12CE12C17E0BE016F5F7F4FC501B8
:1019F0000E94F90B8823A9F289811032B0F09FEF81
:101A00001F3308F091E0282F2F77D1F1F7FE02C0A5
:101A10009817B1F1F50186819781009711F487E15C
:101A200093E0F50197838683BCCF1C31D9F4982FBE
:101A3000907721F0982F9877983761F7482F4F705B
:101A400050E070E060E09CE1440F551F661F771F77
:101A50009A95D1F7C42AD52AE62AF72A195F87FD75
:101A6000C3CFB6CF482F4F7750E070E060E0012E33
:101A700004C0440F551F661F771F0A94D2F7EACFA0
:101A8000103460F3C7CF4F925F926F927F928F9224
:101A90009F92AF92BF92CF92DF92EF92FF920F93FD
:101AA0001F93CF93DF931F92CDB7DEB74C017B011D
:101AB000412C512C612C712CA12CB12CC12CD12C7E
:101AC00010E0BE016F5F7F4FC4010E94F90BE82F49
:101AD000882391F0F9811F3310F18F2F8E7FF9F059
:101AE000D40116968D919C91009711F487E193E0B3
:101AF000F40197838683E0E08E2F0F90DF91CF91E2
:101B00001F910F91FF90EF90DF90CF90BF90AF901B
:101B10009F908F907F906F905F904F9008952F2FA0
:101B20002F7730E040E050E060E070E080E090E04F
:101B3000012F0E941C19422A532A642A752AA62AB8
:101B4000B72AC82AD92A195FF7FDBBCFD7014C9213
:101B500011965C92119712966C92129713967C9242
:101B600013971496AC9214971596BC9215971696E7
:101B7000CC9216971796DC92BFCFAF92BF92CF92BE
:101B8000DF92EF92FF920F931F93CF93DF9300D0DA
:101B90001F92CDB7DEB78C017B016A015901F901B3
:101BA0001082FB0111821082FA01108211821282CE
:101BB0001382FC0184819581892B99F481E0F501E0
:101BC000808380E00F900F900F900F90DF91CF9166
:101BD0001F910F91FF90EF90DF90CF90BF90AF904B
:101BE0000895BE016F5F7F4FC8010E94B80C81113C
:101BF00017C0F80120813181245E3B4019F3F801C0
:101C000024813581232BF1F66CE172E08681978186
:101C10000E947719892B91F6F80117821682CECF90
:101C200049815A816B817C818A019B0193E03695C1
:101C30002795179507959A95D1F7F601008311839B
:101C40002283338347705527F70151834083BACFEE
:101C50000F931F93CF93DF9300D01F92CDB7DEB7C2
:101C60008C016130710531F178F06230710551F10C
:101C70006530710509F446C0FC01868197810097A3
:101C8000E1F586E393E039C041E050E0BE016F5FCB
:101C90007F4FC8010E94250C882319F0998197FD78
:101CA000F3CF0F900F900F900F90DF91CF911F9176
:101CB0000F91089548E050E070E060E0C8010E9494
:101CC000250CEFCFBE016F5F7F4F0E94B80C8823B9
:101CD00041F349815A816B817C81DB01CA01AA27CA
:101CE000BB27481759076A077B0731F3F80186813C
:101CF0009781009711F487E293E0F8019783868338
:101D000080E0CFCF44E050E0D7CF8F929F92AF9248
:101D1000BF92EF92FF920F931F93CF93DF9300D068
:101D20001F92CDB7DEB78C017B01BE016F5F7F4F85
:101D30000E94B80C882301F198E0F801D7010190C6
:101D40000D929A95E1F749815A816B817C81F70167
:101D500084809580B12CA12C84169506A606B70622
:101D6000D0F4F80186819781009711F488E493E01C
:101D7000F8019783868380E00F900F900F900F906B
:101D8000DF91CF911F910F91FF90EF90BF90AF9097
:101D90009F908F90089555834483F8012481358165
:101DA000241B350B35832483E7CF0F931F93CF93E9
:101DB000DF938C01EB014C815D814115510579F474
:101DC0008A819B81F801938382838E819F8197838F
:101DD000868381E0DF91CF911F910F91089570E08C
:101DE00060E0CE010E94250C8111EACFF3CF089567
:101DF0000F931F93CF93DF9300D01F92CDB7DEB721
:101E00008B01BE016F5F7F4F0E94B80C882361F089
:101E100091E049815A816B817C81452B462B472B70
:101E200009F490E0F80190830F900F900F900F90BD
:101E3000DF91CF911F910F9108959F92AF92BF9222
:101E4000CF92DF92EF92FF920F931F93CF93DF9386
:101E500000D000D01F921F92CDB7DEB77B01BE012C
:101E60006F5F7F4F0E94430DA82E882309F440C066
:101E7000A9813A814B815C816D817E812A2F8F817E
:101E8000988501E00E943719B22EC32ED42E052F5B
:101E9000162F972EF82FE92F2A2F217030E040E0DF
:101EA00050E060E070E080E090E0A0E00E945B190C
:101EB00091F1B094D701BC92C0941196CC92119735
:101EC000D0941296DC921297009513960C93139768
:101ED000109514961C931497892D809515968C93C4
:101EE0001597F0951696FC931697E0951796EC9338
:101EF0008A2D28960FB6F894DEBF0FBECDBFDF91B6
:101F0000CF911F910F91FF90EF90DF90CF90BF90F6
:101F1000AF909F900895D701BC921196CC921197E3
:101F20001296DC92129713960C93139714961C93A7
:101F3000149715969C9215971696FC931697D6CFE4
:101F40000F931F93CF93DF9300D01F92CDB7DEB7CF
:101F50008B0144E050E0BE016F5F7F4F0E94250C73
:101F6000882349F049815A816B817C81F801408343
:101F70005183628373830F900F900F900F90DF91C6
:101F8000CF911F910F9108950F931F93CF93DF93DC
:101F900000D000D01F921F92CDB7DEB78B0148E072
:101FA00050E0BE016F5F7F4F0E94250C882389F0AF
:101FB0009981F80190839A8191839B8192839C817E
:101FC00093839D8194839E8195839F819683988539
:101FD000978328960FB6F894DEBF0FBECDBFDF9172
:101FE000CF911F910F9108954F925F927F928F92A0
:101FF0009F92AF92BF92CF92DF92EF92FF920F9398
:102000001F93CF93DF93CDB7DEB760970FB6F894E9
:10201000DEBF0FBECDBFDC01FA0192899F709C30FC
:1020200008F0B9C22A014D01E92FF0E08827E45EEB
:10203000FF4E8F4F0C94141928104110411041107D
:102040007D118B119A11F01136123612CB129012AB
:102050006115710569F06F3F710551F0D401169655
:102060008D919C91009709F098C180E693E095C10D
:10207000D20155966D917C91C4010E94F80E782E84
:10208000CCC06115710561F06F3F710549F0F40135
:1020900086819781009709F02AC180E693E027C1E5
:1020A000BE01923009F067C06F5F7F4FC4010E948C
:1020B000430D782E882309F4B0C0F20186859785F8
:1020C0008830910541F5A980BA80CB80DC80ED8015
:1020D000FE800F8118850588F689E02DA082B182E7
:1020E000C282D382E482F5820683178329813A81F2
:1020F0004B815C816D817E818F8198850E94521910
:1021000009F48BC0F40186819781009709F0EFC034
:1021100080E793E0ECC084309105A1F439812A81F5
:102120009B818C810588F689E02DA32EB22EC92EC5
:10213000D82E3083218392838383E12CF12C00E01D
:1021400010E0D4CF8230910561F499818A810588AD
:10215000F689E02DA92EB82E90838183C12CD12C35
:10216000ECCF019709F0BCC0A9800588F689E02D65
:10217000A082B12CF3CF933049F46F5F7F4FC4013D
:102180000E941D0F81111FC0712C47C0675F7F4FD8
:10219000C4010E94430D8823B9F309851A852B8554
:1021A0003C854D855E856F857889F20186859785AA
:1021B000089709F049C009831A832B833C834D8318
:1021C0005E836F837887D2011E968D919C911F97B5
:1021D0008830910509F045C0A980BA80CB80DC80A9
:1021E000ED80FE800F8118855596ED91FC91A082BF
:1021F000B182C282D382E482F58206831783298169
:102200003A814B815C816D817E818F8198857724B5
:1022100073940E94521909F075CF872D60960FB6FE
:10222000F894DEBF0FBECDBFDF91CF911F910F910C
:10223000FF90EF90DF90CF90BF90AF909F908F90E6
:102240007F905F904F90089509831A832B833C837E
:10225000330F000B102F98010D830E830F83088717
:10226000B2CF84309105B9F489819A81AB81BC8168
:10227000F20125893689F90180839183A283B38392
:102280005C016D01BB0F880B982FDC01E82EF82E46
:10229000082F182FB4CF8230910589F48981BA8034
:1022A0005596ED91FC918083B182A82ECB2CCC0C5D
:1022B000CC08DC2CEC2CFC2C0C2D1C2DA0CF019779
:1022C00079F45596ED91FC91A980A082BA2CBB0CB3
:1022D000BB08CB2CDB2CEB2CFB2C0B2D1B2D8FCF21
:1022E000F40186819781009711F485E292E0D40190
:1022F00017969C938E93169747CF6530710521F002
:102300006F3F710509F0C3CEF20165897689C4017A
:102310000E94A00FB4CE6130710521F06F3F7105AE
:1023200009F09CCED20155966D917C91C4010E941A
:10233000C40FA5CE6230710509F0A9CEBE016F5F52
:102340007F4FCD010E94B80C782E882309F465CF09
:1023500089819A81AB81BC810097E1E0AE07B1052C
:1023600048F0D40116968D919C910097B1F482E8C3
:1023700093E013C0AC014E5F5F4F8A0130E020E074
:10238000081719072A073B0760F4D40116968D91A8
:102390009C91009711F487E293E0F4019783868380
:1023A000F3CEF2012289207C203849F4D40116961C
:1023B0008D919C91009789F781E993E0EECF268576
:1023C00037852417350768F265897689FB01819383
:1023D0009193BF0149815A81C4010E94250C4FCEBF
:1023E0006230710509F03ACEDA0155960D911C91D3
:1023F000BE016F5F7F4FC4010E94B80C782E882306
:1024000009F40BCF89819A81AB81BC818F3FEFEFBB
:102410009E07AE07BE0709F4B8CFAC014F5F5F4F10
:102420006A01F12CE12CC816D906EA06FB0608F46D
:10243000ACCFF2012289207C203809F4B7CF268561
:1024400037852417350750F4D40116968D919C9149
:10245000009709F0A2CF83EA93E09FCF800F911FEE
:10246000DC011C9249815A81B801B6CF62307105F6
:1024700009F00DCEBE016F5F7F4FCD010E94850E2A
:10248000882309F481CEF201818D928D892B51F43C
:10249000D40116968D919C91009709F07ECF89E921
:1024A00092E07BCF82898F708930C1F0F2018289FE
:1024B000982F907C20E030E031F4807321E030E010
:1024C000803209F420E0F20145895689618D728DD0
:1024D000CE0101960E94FE15782E19C04789508DB5
:1024E0004115510519F3FA0134970190F081E02D5F
:1024F0003097E1F242505109B201CE01019619958F
:10250000782E882321F08D819E81892B79F6BE015A
:102510006F5F7F4FC4010E94D50E81117ECE34CEF5
:102520006230710509F09ACDBE016F5F7F4FCD011A
:102530000E94B80C782E882309F46FCE89819A8185
:10254000AB81BC810097F1E0AF07B10508F009CF7E
:10255000F201468557850097A105B10539F470E071
:1025600060E0858996890E94701957CE8A0130E013
:1025700020E080179107A207B30751F0D401169607
:102580008D919C91009709F008CF83EB93E005CFE4
:102590006589768921CF16968D919C911797009722
:1025A00009F0A6CE87E392E0A3CE8F929F92AF92DE
:1025B000BF92CF92DF92EF92FF920F931F93CF9330
:1025C000DF93CDB7DEB7A3970FB6F894DEBF0FBE8B
:1025D000CDBF7C015B018A01DA0152968C91529742
:1025E000982F907C903409F425C1903809F418C1D3
:1025F0009111FFC1982F9073903109F467C078F45E
:10260000992309F46AC0D70116968D919C91009781
:1026100011F487E392E0F701978386838CC09032B0
:1026200009F462C0903379F78F708850990B029744
:1026300008F0EDC05796ED91FC91589720813181BB
:102640001C968D919C911D972817390709F4DFC0BE
:102650001E964D915C911F9770E060E055968D91AC
:102660009C910E947019D8015996ED91FC9184813A
:102670009581892B59F486819781892B39F4A28120
:10268000B3818D919C91892B09F4C1C0D8015596D5
:102690004D915C91BF01CE0101960E9445038823B4
:1026A00009F4B5C0CE0101960E940215D82E811101
:1026B000AEC0F70186819781009711F484EE93E014
:1026C000D70117969C938E9316977FC05796ED91DE
:1026D000FC91309711F081E08083A801B501C7011A
:1026E0000E94F40FD82E71C0FA018788908CD40113
:1026F0004D915C9126853785429FB001439F700DB7
:10270000529F700D112423893489260F371FB2E0A0
:10271000AB16B10409F06DC08F70863008F069C047
:10272000368B258BBE016F5F7F4FC7010E94850EE0
:10273000D82E811102C0D12C48C08D819E81892B59
:1027400051F1F40120813181D80150968D919C91F5
:102750002817390700F5A8016FEF70E0CE01019648
:102760000E94F40F8823B1F0F401808191810196D9
:1027700091838083D80155968D919C9156971E9692
:102780002D913C911F97820F931F56969C938E9389
:102790005597D3CFD12C8D819E81892B69F0F7017C
:1027A00086819781009711F485ED93E0D701179604
:1027B0009C938E931697BFCFBE016F5F7F4FC7016B
:1027C0000E94D50E882309F4B6CF8D2DA3960FB69F
:1027D000F894DEBF0FBECDBFDF91CF911F910F9157
:1027E000FF90EF90DF90CF90BF90AF909F908F9031
:1027F0000895F801368B258BCA010196D4018D937B
:102800009C93808991894817590748F666CFF8014B
:10281000848595850788F08DE02D918380835DCF39
:10282000D70116968D919C91009709F0F4CE81E91D
:1028300093E0F1CEED91FC9186819781892B21F473
:10284000C7010E94280E4ECF6230710509F066C0A4
:10285000BE016F5F7F4FC7010E94850ED82E88236F
:1028600009F4B3CFF80182898F70893051F5A789B7
:10287000B08D109731F18485958511969C938E9338
:10288000FD0134970190F081E02D3097D1F0AD013A
:1028900042505109B801CE0101961995D82E8111E7
:1028A00010C0D70116968D919C91009731F48F81BD
:1028B0009885009711F48BEF93E0F7019783868357
:1028C00084CFAD80BE80D801ED91FC910680F78168
:1028D000E02DA80170E060E0CE0101961995D82E98
:1028E00081110EC0F70186819781009709F0E8CE2B
:1028F0008F819885009709F0E3CE82E094E0E0CEE6
:102900008D819E81009719F08A159B05D0F2BE013A
:102910006F5F7F4FC7010E94D50EE4CE6130710515
:1029200009F44DC070F06530710509F456C0D70147
:1029300016968D919C91009709F06DCE86E393E0F9
:102940006ACECE0101964C01B12CA12C64019FEFFF
:10295000A91AB90AABE0AA16B10449F4F7018681B5
:102960009781009709F022CF87E193E01FCF41E0E4
:1029700050E0B401C7010E94250C882309F4DBCE86
:10298000BFEF8B1A9B0AF601808187FDDFCF84EEB3
:102990009BE09D8F8C8FCE0101969F8F8E8FB9A269
:1029A000A8A21BA21AA2D801ED91FC910680F78182
:1029B000E02DA80170E060E04B96199593CE48E0B9
:1029C00050E0BE016F5F7F4FC7010E94250C28E0D9
:1029D000A22EB12C8111DBCFAECE44E050E0BE017F
:1029E0006F5F7F4FC7010E94250C94E0A92EB12C88
:1029F000F1CFF70186819781009709F0D7CE87E361
:102A000092E0D4CECF92DF92EF92FF920F931F937A
:102A1000CF93DF93CDB7DEB7AA970FB6F894DEBF9A
:102A20000FBECDBF8C016E018CE1C80ED11C88E0B9
:102A3000D6011D928A95E9F71CA21DA21EA21FA213
:102A400019A618A6D801ED91FC9184819581009773
:102A5000C9F024EE3BE03D8F2C8F9F8F8E8F8FEF40
:102A60009FEF99A388A39E01265D3F4FAE014C5D69
:102A70005F4FBE01685D7F4FC6010E94BD0D882378
:102A800009F4BAC0F8018289282F2F702A30E9F49E
:102A90000588F689E02DE080F180E114F10409F465
:102AA00069C0B701CE0101960E945303882349F003
:102AB000D70116961C92CE0101960E94021588231A
:102AC000C9F1F701E480F580E8CF982F907C09F0F8
:102AD00088C0982F90739031E1F50788F08DE02D34
:102AE000309709F010822850330BF80185899689B8
:102AF00022303105B8F5018CF28DE02D248135812D
:102B0000232B51F426813781232B31F4A281B38109
:102B10002D913C91232B31F1AC01BF01CE010196E7
:102B20000E944503882331F1CE0101960E940215CF
:102B3000811120C0AA960FB6F894DEBF0FBECDBF9C
:102B4000DF91CF911F910F91FF90EF90DF90CF9089
:102B50000895D80185FFC7CF5796ED91FC9111825A
:102B6000108208C0D8011E964D915C9170E060E023
:102B70000E9470194CA15DA16EA17FA14115510564
:102B80006105710539F1F80184859585B0E0A0E013
:102B9000481759076A077B07E9F468A579A5A801D2
:102BA000C6010E94D512882339F19E01265D3F4F50
:102BB000AE014C5D5F4FBE01685D7F4FC6010E9454
:102BC000BD0D8823C9F0D8015796ED91FC9130973F
:102BD00009F01082C8010E948203811153CF81E065
:102BE000A9CF903839F6D8010388F489E02D1182F5
:102BF000108285FFBFCFB0CF80E09CCF2F923F9255
:102C00004F925F926F927F928F929F92AF92BF92FC
:102C1000CF92DF92EF92FF920F931F93CF93DF93A8
:102C2000CDB7DEB7C255D1090FB6F894DEBF0FBEDF
:102C3000CDBF7C0163962FAF639727961FAE1EAE64
:102C400027971FAA18AE19AE1AAE1BAE1CAE1DAE4A
:102C50001EAECE014C960E944503882389F16396EF
:102C60002FAD639720FD2CC0CE014C960E9402151B
:102C7000811126C0D70116962D913C912115310561
:102C800011F424EE33E0F70137832683CE5ADF4F69
:102C90000FB6F894DEBF0FBECDBFDF91CF911F916D
:102CA0000F91FF90EF90DF90CF90BF90AF909F90EB
:102CB0008F907F906F905F904F903F902F900895EE
:102CC0002E961FAE1EAE2E972FEF3FEF2C963FAFE6
:102CD0002EAF2C97312C212C812C912C5401AE013C
:102CE000445D5F4F2A965FAF4EAF2A979E01295BE6
:102CF0003F4FAE01415C5F4FBE016D5B7F4FC7012F
:102D00000E94BD0D8823A1F023964CAD5DAD6EAD44
:102D10007FAD23974115510561057105B9F563969E
:102D20005FAD639752FF26C081E028968FAF28974A
:102D300028968FAD2897882309F4C1C02C96AEAD94
:102D4000BFAD2C97119609F446C127962EAD3FAD25
:102D500027972E964EAD5FAD2E972417350709F4B1
:102D60003AC1D70116968D919C91009759F48BE149
:102D700094E008C0D70116968D919C91009711F4AC
:102D800082E194E0F7019783868399C0CE014C9647
:102D90000E9493038823D1F18EA5982F9F709A30BB
:102DA000A9F18073803209F0E5C08BA99CA92A960D
:102DB000EEADFFAD2A978E179F0709F0D0C088A10E
:102DC00099A12C962EAD3FAD2C978217930709F44D
:102DD000C0C02F3F3F4F09F4AEC027962EAD3FAD88
:102DE00027972E96AEADBFAD2E972A173B0709F455
:102DF000A2C0F70186819781009711F48BE194E0DE
:102E0000D70117969C938E93169759C081149104FD
:102E1000A104B10499F4CE014C960E9411048823B8
:102E200009F43FC1E9A9FAA92080318021143104B5
:102E300009F447C088A499A4B12CA12C23964CACCA
:102E40005DAC6EAC7FAC2397481459046A047B04D4
:102E500008F41DC1D70114960D90BC91A02D629667
:102E6000BFAFAEAF62972596EEADFFAD25976096EA
:102E7000FFAFEEAF60976101D70114968D919C91E1
:102E8000C114D10409F4FBC06296EEADFFAD6297A8
:102E90008E179F0709F02ACFD601ED91FC91019082
:102EA000F081E02D309791F060960EAD1FAD6097E8
:102EB000A3019201B601C7011995811137C080E0C5
:102EC000E5CE88248A94982C5401B8CFB601CE015F
:102ED00001960E94530381110EC0F70126813781AC
:102EE0002115310511F427EF32E0D70117963C93F5
:102EF0002E931697CBCE8D859E85B0E0A0E08415ED
:102F00009505A605B70591F48B819C81892B71F0FD
:102F100021E0F6012683AE014F5F5F4F60966EADF4
:102F20007FAD6097C7010E94D512C7CFD601149616
:102F3000CD90DC90A1CF27961FAE1EAE2797ECA5B3
:102F4000FDA52E96FFAFEEAF2E972C969FAF8EAFBE
:102F50002C9725E430E02C0F3D1F3CAB2BAB259686
:102F60006EAD7FAD2597AE01445E5F4FC7010E94F5
:102F7000D51294C08111F3CF8CA19DA1803491050D
:102F800070F7FC0175E0F695E7957A95E1F7EE0F9D
:102F9000FF1FEE0FFF1F41E050E04C0F5D1FE40FDD
:102FA000F51F8F71992741E050E060E070E004C0A8
:102FB000440F551F661F771F8A95D2F786A997A9D8
:102FC000A0ADB1AD842B952BA62BB72B86AB97ABC1
:102FD000A0AFB1AFC4CFEC8DFD8D22853385211517
:102FE000310509F453CE2134310510F020E430E0EE
:102FF000A90165E0569547956A95E1F7FE01F796B8
:1030000070E060E046175707B1F081909190A19071
:10301000B1908B208A208920809451F0D701169698
:103020008D919C91009709F0ADCE82EB92E0AACEF3
:103030006F5F7F4FE7CFB9016F717727672B09F477
:1030400025CE440F551F440F551FFE01E40FF51FF9
:103050002F7190E2921B4FEF5FEFBA0104C076959B
:103060006795579547959A95D2F787A890ACA1ACEC
:10307000B2AC84169506A606B70681F607CE629610
:103080002EAD3FAD62978217930709F02FCE25969C
:103090006EAD7FAD2597C7010E94280E811126CE07
:1030A0000ECF2114310409F40CCF23964CAC5DAC47
:1030B0006EAC7FAC2397CECE9F92AF92BF92CF9251
:1030C000DF92EF92FF920F931F93CF93DF9300D085
:1030D00000D01F921F92CDB7DEB77C016B015A0161
:1030E000022F932E21FD16C00E94FE15182F812F4E
:1030F00028960FB6F894DEBF0FBECDBFDF91CF91FB
:103100001F910F91FF90EF90DF90CF90BF90AF9005
:103110009F900895BE016F5F7F4F0E94850E182F0C
:10312000882329F3202F392DA501B601CE01019660
:103130000E94FE15182FBE016F5F7F4FC7010E94CE
:10314000D50E8111D4CF10E0D2CF30E020E00C9426
:103150005C18CF93DF93CDB7DEB7CE56D1090FB64B
:10316000F894DEBF0FBECDBF0E94DE00279AFF2479
:10317000F39480913C048823E1F3F89400913D049A
:1031800010913E041127A80160E474E0CE0101967D
:103190000E94671910923C047894AE961FAEAE97C9
:1031A000AF961FAEAF97B801CE0101960E949D0C5D
:1031B000A6962FAFA697A7963FAFA797A8964FAF13
:1031C000A897A9965FAFA997AA966FAFAA97AB9653
:1031D0007FAFAB97AC968FAFAC97AD969FAFAD97E7
:1031E000AE0143595F4F60E072E0CE018B599F4FB3
:1031F0000E94A518882309F4BCCFAE968FADAE9778
:10320000882349F0AF968FADAF97882321F02F9A8E
:10321000F092C600AECF2F981092C600AACF10929F
:103220003F041092A4040895EE0FFF1F881F8BBF68
:103230000790F691E02D1994002E083090F0982F09
:10324000872F762F652F542F432F322F2227085098
:10325000F4CF220F331F441F551F661F771F881F8F
:10326000991F0A95B2F7002D089597FD1094002E2E
:10327000083098F00850232F342F452F562F672FF2
:10328000782F892F912DF4CF159497958795779561
:10329000679557954795379527950A95AAF711246D
:1032A000002D08952A153B054C055D056E057F052B
:1032B0008007910708950024A7FD00942A17300580
:1032C0004005500560057005800590050895FB01D7
:1032D000DC0102C001900D9241505040D8F7089592
:1032E000DC0101C06D9341505040E0F70895FB01AF
:1032F000DC018D91019080190110D9F3990B08958B
:04330000F894FFCF6F
:103304004C010E020000000001000000010000005A
:1033140073747265616D2066756C6C00696F2065ED
:1033240072726F7200696E76616C69642064617494
:10333400615F73697A6500696E76616C69642066A1
:1033440069656C642074797065007375626D736768
:103354002073697A65206368616E676564006279C9
:103364007465732073697A6520657863656564653F
:1033740064007A65726F2D6C656E6774682073746F
:1033840072696E6700756E7465726D696E617465DD
:103394006420737472696E6700696E76616C696427
:1033A400206669656C642064657363726970746F08
:1033B40072006D697373696E6720726571756972E5
:1033C4006564206669656C640063616C6C6261634A
:1033D4006B206572726F72006172726179206D6127
:1033E400782073697A65206578636565646564002F
:1033F400286E6F6E652900696E76616C696420655C
:103404007874656E73696F6E00656E642D6F662DDA
:1034140073747265616D00766172696E74206F7683
:103424006572666C6F770073697A6520746F6F20BC
:103434006C6172676500696E76616C696420776996
:1034440072655F7479706500706172656E74207363
:10345400747265616D20746F6F2073686F7274008D
:1034640077726F6E67207769726520747970650072
:10347400696E746567657220746F6F206C61726722
:1034840065006279746573206F766572666C6F7718
:10349400006E6F206D616C6C6F6320737570706F5C
:1034A400727400737472696E67206F766572666CED
:1034B4006F7700696E636F727265637420666978F2
:1034C4006564206C656E6774682062797465732026
:1034D40073697A65006172726179206F76657266CC
:1034E4006C6F77006661696C656420746F20736526
:1034F400742064656661756C7473007375626D73B2
:10350400672063616C6C6261636B206661696C65E2
:1035140064007A65726F207461670077726F6E67FA
:103524002073697A6520666F722066697865642005
:0C353400636F756E74206669656C64003E
:00000001FF
